:100000000C94AE010C94D6010C94D6010C94D6013C
:100010000C94D6010C94D6010C94D6010C94D60104
:100020000C94D6010C94D6010C94D6010C94D601F4
:100030000C94D6010C94D6010C94D6010C9417069E
:100040000C9415060C94D6010C9413060C94D6014E
:100050000C94D6010C94D6010C94D6010C94D601C4
:100060000C94D6010C94D6010C94D6010C94D601B4
:100070000C94D6010C94D6010C94D6016E616E00DE
:10008000696E660000407A10F35A00A0724E18099B
:100090000010A5D4E80000E87648170000E40B54EF
:1000A000020000CA9A3B000000E1F50500008096BE
:1000B0009800000040420F000000A08601000000F0
:1000C000102700000000E8030000000064000000AA
:1000D00000000A00000000000100000000002C7673
:1000E000D888DC674F0823DFC1DFAE59E1B1B7968E
:1000F000E5E3E453C63AE651997696E8E6C28426EB
:10010000EB898C9B62ED407C6FFCEFBC9C9F40F2C6
:10011000BAA56FA5F490055A2AF75C936B6CF96742
:100120006DC11BFCE0E40D47FEF520E6B500D0ED07
:10013000902E0300943577050080841E080000206F
:100140004E0A000000C80C333333330F986E12830D
:100150001141EF8D2114893BE65516CFFEE6DB18E1
:10016000D1844B381BF77C1D901DA4BBE4242032A6
:1001700084725E228100C9F124ECA1E53D270000D4
:1001800000000000005F00000003000300143E14A4
:100190003E14242A7F2A12433308666136495522C9
:1001A000500005030000001C2241000041221C00F9
:1001B00014083E081408083E0808005030000008E3
:1001C00008080808006060000020100804023E5182
:1001D00049453E0004027F0042615149462241499F
:1001E00049361814127F1027454545393E4949497B
:1001F0003201017109073649494936264949493EC4
:100200000036360000005636000008142241001463
:1002100014141414004122140802015109063E412D
:1002200059555E7E0909097E7F494949363E41415B
:1002300041227F4141413E7F494949417F090909A6
:10024000013E4141493A7F0808087F00417F410053
:10025000304040403F7F081422417F404040407F73
:10026000020C027F7F0204087F3E4141413E7F092C
:100270000909061E2121215E7F09090976264949BF
:10028000493201017F01013F4040403F1F20402093
:100290001F7F2010207F41221C2241070870080781
:1002A0006151494543007F410000020408102000CD
:1002B00000417F0004020102044040404040000130
:1002C00002040020545454787F4444443838444451
:1002D0004444384444447F385454541804047E053C
:1002E00005085454543C7F0804047800447D4000C1
:1002F0002040443D007F1028440000417F40007CA6
:10030000047804787C0804047838444444387C1425
:10031000141408081414147C007C08040448545471
:10032000542004043F44443C4040207C1C20402096
:100330001C3C4030403C44281028440C5050503C59
:100340004464544C44000836414100007F000041A1
:1003500041360800020102040200781811241FBE71
:10036000CFEFD0E1DEBFCDBF12E0A0E0B1E0E0EB27
:10037000FAE302C005900D92A233B107D9F723E04A
:10038000A2E3B2E001C01D92AA34B207E1F711E086
:10039000CEEAD1E004C02197FE010E941B19CD3A9C
:1003A000D107C9F70E9449110C94561D0C94000006
:1003B000CF93DF9300D000D0CDB7DEB780917A0025
:1003C000806480937A0080917A0084FFFCCF9091C2
:1003D000790080917A00806180937A00292F30E043
:1003E00050E040E029833A834B835C83CA01B90122
:1003F0000E94541A2AE337E044E55CE369837A8378
:100400008B839C8369817A818B819C810E944A1BAA
:1004100069837A838B839C8369817A818B819C81B8
:100420000F900F900F900F90DF91CF910895CF9381
:10043000DF9300D000D0CDB7DEB780917C00807E06
:1004400080937C000E94D80120E030E040E250E43C
:1004500069837A838B839C8369817A818B819C8178
:100460000E94451B181694F019821A821B821C8266
:1004700069817A818B819C810E941C1ACB010F902B
:100480000F900F900F90DF91CF91089580E090E052
:10049000A0E8BFE389839A83AB83BC83E9CF2A9822
:1004A0002FE789EA93E0215080409040E1F700C0B7
:1004B00000002A9A2FE789EA93E02150804090407B
:1004C000E1F700C000002C9A2B9A2D9A28982998C1
:1004D0002E9A2C9888E28BB92B982B9A2C9A2C98D0
:1004E00081E18BB92B982B9A2C9A2FE782E392E02B
:1004F000215080409040E1F700C000002C988BEC28
:100500008BB92B982B9A2C9A81E08BB92B982B9A2C
:100510002C9880EC8BB92B982B9A2C9A86E28BB96D
:100520002B982B9A88E08BB92B982B9A2C9881ECDE
:100530008BB92B982B9A2C9A80E18BB92B982B9AFC
:100540002C9885EC8BB92B982B9A2C9A85E38BB938
:100550002B982B9A8EE38BB92B982B9A2C9886E3A9
:100560008BB92B982B9A2C9A88E48BB92B982B9AC1
:100570002C9880EB8BB92B982B9A2C9A8AE48BB908
:100580002B982B9A2C9881EB8BB92B982B9A2C9A21
:100590001BB82B982B9A8BE18BB92B982B9A2C9804
:1005A00086EB8BB92B982B9A2C9A8EE091E0FC016C
:1005B000019620812BB92B982B9A21E0823192074A
:1005C000B1F72C9887EC8BB92B982B9A2C9A85EB4A
:1005D0008BB92B982B9A2C9886EF8BB92B982B9A4A
:1005E0002C9A83E191E0FC01019620812BB92B9894
:1005F0002B9A21E086319207B1F72C9882EF8BB9C4
:100600002B982B9A2C9A1BB82B982B9A2C9886E215
:100610008BB92B982B9A2C9A81E08BB92B982B9A1B
:100620002C988AE38BB92B982B9A2C9A85E58BB959
:100630002B982B9A2C9880EE8BB92B982B9A2C9A6E
:1006400087E191E0FC01019620812BB92B982B9A30
:1006500021E086329207B1F72C9881EE8BB92B9866
:100660002B9A2C9A87E291E0FC01019620812BB90C
:100670002B982B9A21E086339207B1F72C988AE2C7
:100680008BB92B982B9A2C9A87E391E0FC01019669
:1006900020812BB92B982B9A21E08B339207B1F74D
:1006A0002C988BE28BB92B982B9A2C9A8CE391E0A7
:1006B000FC01019620812BB92B982B9A21E08034E4
:1006C0009207B1F72C9884E38BB92B982B9A2C9A2C
:1006D0002C9884EB8BB92B982B9A2C9A1BB82B98BF
:1006E0002B9A2C9887EB8BB92B982B9A2C9A87E016
:1006F0008BB92B982B9A2C988CE28BB92B982B9A30
:100700002C9A80EF90E020E431E01BB82B982B9AD4
:100710001BB82B982B9A21503109B9F7019799F7FB
:100720002C9889E28BB92B982B9A2C9A8FEB94ED0D
:1007300021E0815090402040E1F700C00000299A5C
:10074000089585B7806885BF85B7806885BF8FE7C6
:1007500084B98FEF8AB90C944F029C0190930501E4
:10076000809304012C9886E38BB92B982B9A2C9AB2
:100770002115310509F045C080EF90E0909301010B
:100780008093000180E491E0909303018093020143
:1007900088E48BB92B982B9A2C988AE28BB92B98EA
:1007A0002B9A2C9A1BB82B982B9A1BB82B982B9A08
:1007B000809100019091010101979BB92B982B9A90
:1007C0008091000181508BB92B982B9A2C988BE249
:1007D0008BB92B982B9A2C9A1BB82B982B9A1BB859
:1007E0002B982B9A809102019091030101979BB95C
:1007F0002B982B9A8091020181508BB92B982B9AC0
:1008000008952130310571F480E491E09093010165
:100810008093000180EF90E09093030180930201A8
:1008200088EEB7CF2230310571F480EF90E09093DD
:1008300001018093000180E491E090930301809393
:10084000020188E8A6CF2330310509F0A5CF80E466
:1008500091E0909301018093000180EF90E09093EC
:1008600003018093020188E294CF0F931F93CF93EB
:10087000DF93CDB7DEB728970FB6F894DEBF0FBE73
:10088000CDBF29833A834B835C83262F6D83372F1B
:100890007E838F83988789819A814B815C81B9019E
:1008A000EF81F8852C982AE22BB92B982B9A2C9A59
:1008B0009BB92B982B9A8BB92B982B9A5BB92B98B9
:1008C0002B9A4BB92B982B9A2C982BE22BB92B985F
:1008D0002B9A2C9A7BB92B982B9A6BB92B982B9A25
:1008E000FBB92B982B9AEBB92B982B9A2C982CE2CE
:1008F0002BB92B982B9A2C9A4817590778F09B0103
:10090000E217F30748F01BB92B982B9A0BB92B98D9
:100910002B9A2F5F3F4FF4CF0196EECF28960FB65C
:10092000F894DEBF0FBECDBFDF91CF911F910F9125
:1009300008950F931F93CF93DF93CDB7DEB728971A
:100940000FB6F894DEBF0FBECDBF29833A834B8329
:100950005C83262F6D83372F7E838F8398878981D1
:100960009A814B815C81B901AF81B8852C982AE2CC
:100970002BB92B982B9A2C9A9BB92B982B9A8BB925
:100980002B982B9A5BB92B982B9A4BB92B982B9AB7
:100990002C982BE22BB92B982B9A2C9A7BB92B985D
:1009A0002B9A6BB92B982B9ABBB92B982B9AABB976
:1009B0002B982B9A2C982CE22BB92B982B9A2C9AAB
:1009C00048175907A0F0F8019B018F01A217B30740
:1009D00060F011811BB92B982B9A12811BB92B98AF
:1009E0002B9A2F5F3F4F3496F0CF0196E9CF289690
:1009F0000FB6F894DEBF0FBECDBFDF91CF911F9130
:100A00000F9108950F931F93CF93DF93CDB7DEB768
:100A100028970FB6F894DEBF0FBECDBFE0E0F1E03F
:100A2000178216821186108686E09E012F5F3F4F47
:100A3000D9011D928A95E9F7808191810197482F0C
:100A40009C838B8382819381019798878F83048510
:100A5000158529813A815C816D817E8198850E940E
:100A6000350428960FB6F894DEBF0FBECDBFDF91D8
:100A7000CF911F910F910895AF92BF92CF92DF92C5
:100A8000EF92FF920F931F93CF93DF9390EE980F07
:100A90009F3508F0AAC02091060130910701E901B5
:100AA00024964091080150910901BA01695F7F4F76
:100AB0002C989BE29BB92B982B9A2C9A5BB92B987C
:100AC0002B9A4BB92B982B9A7BB92B982B9A6BB9F5
:100AD0002B982B9A082E000C990B8097A5E0A89FC5
:100AE000F001A99FF00D1124E258FE4FC901DA016F
:100AF0001AE2C12E0CE2B02E2C98C217D307C8F10F
:100B0000CBB82B982B9A2C9A3BB92B982B9A2BB9B4
:100B10002B982B9A3BB92B982B9A2BB92B982B9A65
:100B20002C98BBB82B982B9A2C9AA4907A0111E0A0
:100B30006E157F05D0F0012F0A21D0900B01011115
:100B400002C0D0900D01DBB82B982B9A002351F0F6
:100B500000910A010BB92B982B9A0FEFE01AF00ABB
:100B6000110FE6CF00910C01F5CF2F5F3F4F31966B
:100B7000C3CFEAE2EBB92B982B9A2C9A3BB92B986E
:100B80002B9A2BB92B982B9A3BB92B982B9A2BB9D4
:100B90002B982B9A2C982CE22BB92B982B9A2C9AC9
:100BA0006417750768F020910D012BB92B982B9ACB
:100BB00020910C012BB92B982B9A4F5F5F4FF0CFF0
:100BC00006969093070180930601209100013091D1
:100BD00001018217930748F0109207011092060155
:100BE0001896B0930901A0930801DF91CF911F914E
:100BF0000F91FF90EF90DF90CF90BF90AF9008954E
:100C00000F931F93CF938C01C0E0F801EC0FF11DFF
:100C10008081882321F00E943C05CF5FF6CFCF91E1
:100C20001F910F910895169A1895169818951F926E
:100C30000F920FB60F9211242F933F934F935F9310
:100C40006F937F938F939F93AF93BF93EF93FF9394
:100C5000CF93DF93CDB7DEB72697DEBFCDBF8091B0
:100C60004803909149030196909349038093480368
:100C700087E492E00E94EA0E809148039091490334
:100C800066E570E00E94D018892BC9F582E392E0F6
:100C90000E94910BE62F472F382F292F8091480370
:100CA0009091490366E570E00E94D018CB01880F4F
:100CB000991F885B9D4F9E838D83E9834A833B8385
:100CC0002C8369817A818B819C810E94231AED811A
:100CD000FE81718360830E94020587E492E00E9496
:100CE0008F0C87E492E00E94270C87E492E00E9438
:100CF000EA0E68E472E087E492E00E946710809157
:100D00004803909149038035904401F510924903BE
:100D100010924803E8E4F2E01192119223E0E834E3
:100D2000F207D1F70E94020587E492E00E948F0C3F
:100D300087E492E00E94270C87E492E00E94EA0E8A
:100D400068E472E087E492E00E94671026960FB68E
:100D5000F894DEBF0FBECDBFDF91CF91FF91EF9131
:100D6000BF91AF919F918F917F916F915F914F91C3
:100D70003F912F910F900FBE0F901F901895A5E1F6
:100D8000B0E0E5ECF6E00C94E4187C011B015A019C
:100D9000DC0117961C921E92169713968C9181FF78
:100DA00068C3FE0131964F01D70113969C91F10162
:100DB00093FD859193FF81911F01882309F4EDC272
:100DC000853239F493FD859193FF81911F0185321E
:100DD00039F4B70190E00E94A51C65015601E4CFEB
:100DE00010E0512C00E0003238F48B3209F190F41D
:100DF0008032F9F0833209F107FD34C020ED280F6D
:100E00002A3020F506FF1BC0BAE01B9F200D1124DD
:100E1000122F05C08D3279F0803371F70160F10136
:100E200093FD859193FF81911F018111DCCF1AC041
:100E300002600460F4CF0860F2CF0061F0CFEAE016
:100E40005E9E200D1124522E0062E9CF8E3221F4D5
:100E500006FDA3C20064E3CF8C3611F40068DFCF37
:100E60008836E9F29BEB980F933008F073C000616D
:100E7000805E06FF16E00F73702E853609F071C094
:100E8000689476F877FE77C0812F1C3308F08BE3E7
:100E900044244394480E27E0D5014D915D916D9116
:100EA0007D916D014C875D876E877F87042DA4013E
:100EB0006C857D858E859F850E94B71B5C01B981FD
:100EC000BC87B0FF04C06DE2662EB3FF0BC05BE2CF
:100ED000652E71FC07C0E72DE4706E2E72FE02C015
:100EE00070E2672E0C850C7009F456C06110C4C204
:100EF000F3E000E0F51598F483E0052D081B73FC82
:100F000007C0B70180E290E00E94A51C0150C9F71C
:100F1000662029F0B701862D90E00E94A51CFC8573
:100F20004CE7A42E40E0B42EF3FD04C030E8A32E1D
:100F300030E0B32E172D1071F5018491811122C07C
:100F4000002309F44BCFB70180E290E00E94A51C7A
:100F50000150F6CF9BE9980F933008F041C10F7E06
:100F600088CF863619F4689477F88CCF112309F46A
:100F700089CF115087CF212F183010F027E017E0CC
:100F8000412C8ACF11118052B70190E00E94A51C1C
:100F90002FEFA21AB20AD0CF77FE78C04A0CFC8598
:100FA000F4FF04C08A81813309F44A9414140CF0CC
:100FB00090C028E0241510F428E0422E85E090E04F
:100FC00077FE06C0C501B7FE02C090E080E0019642
:100FD00061100196112331F0212F30E02F5F3F4F38
:100FE000820F931F5816190619F014F0052D081BCF
:100FF000872D897011F4011171C0662029F0B701A5
:10100000862D90E00E94A51C73FC02C001116DC0EA
:1010100077FE98C0B98AA88AB7FE02C0198A188AD2
:1010200068887988A501441951095D8B4C8B412E44
:10103000512C66277727641975097B8B6A8BA61458
:10104000B7040CF459C08C899D89861597050CF05E
:1010500053C0F501E619F709E80DF91D818191E00A
:10106000691A7108AA89BB896A167B060CF446C006
:10107000B70190E00E94A51CBFEF6B167B06F9F646
:10108000B7018EE290E00E94A51CD9CF76FC96CFE6
:10109000E12FF0E0EA15FB053CF03CEFA3163FEF33
:1010A000B30614F0689477F83296E80DF91D01C084
:1010B0001150112319F082918033D1F377FE7ECF46
:1010C00044244394410E1A151B0431F02CF01A19D4
:1010D00075CF4424439472CF10E070CFB70180E203
:1010E00090E00E94A51C015086CFB70180E390E0FC
:1010F0000E94A51C01508ACF80E3B1CF688979890D
:101100006150710940945094E889F9894E165F0640
:10111000A4F4461A570A460E571EA414B50441F407
:101120009A81963368F4953319F4FC85F4FF08C06E
:10113000B70190E00E94A51C03CF512C412CEBCFAE
:1011400081E3F6CF8A81813319F02C852F7E2C879D
:10115000B70190E00E94A51C1123A9F0B7018EE20F
:1011600090E00E94A51C92E0692E610E12E0E12F32
:101170001F5FE80DF92DF11D8081B70190E00E94FD
:10118000A51C6112F4CF85E690E074FE02C085E4F0
:1011900090E0B7010E94A51CB7FC06C0A114B104E1
:1011A000C1F43C8534FF15C0B194A194B1088DE21F
:1011B000B70190E00E94A51C80E35AE0A516B10497
:1011C00054F4B70190E00E94A51CB701C501C09678
:1011D000B1CF8BE2EDCF8F5F4AE0A41AB108EDCF1B
:1011E0008336B9F0833709F43CC0833509F04FC02A
:1011F000D501AD90BD906D01612F70E006FD02C07C
:101200006FEF7FEFC5010E948F1C3C01102F10680B
:101210000DC0650162E0C60ED11CD5018C91898399
:1012200066246394712C5401102F1F7713FD04C0A2
:101230005614170409F020F5052D6114710409F402
:101240007FCEF50117FD859117FF81915F01B701F1
:1012500090E00E94A51C01110150B1E06B1A7108C9
:10126000ECCFF501A190B1906F01612F70E006FD08
:1012700002C06FEF7FEFC5010E949A1C3C01D4CFE2
:10128000B70180E290E00E94A51C5A94D1CF843629
:1012900019F0893609F070C007FF65C0F50161914A
:1012A0007191819191916F010F7697FF08C0909590
:1012B0008095709561957F4F8F4F9F4F00682AE012
:1012C00030E0A4010E94F81CA82EA818BA2C602EA9
:1012D00006FF0BC0E89460F8A11638F404FF04C0C0
:1012E00002FD02C00E7E602EB12E64FE9AC0FE0189
:1012F000EA0DF11D8081803309F08CC0562D597E96
:10130000652E062D087063FC9BC060FE95C01A2DEB
:10131000B51410F4150D1B1964FE98C0B70180E3D5
:1013200090E00E94A51C62FE09C088E790E061FE83
:1013300002C088E590E0B7010E94A51CA11608F440
:1013400091C0AA94B12C6FEFA61AB60AA80CB91CCA
:10135000D5018E915D01B70190E00E94A51CA814F3
:10136000B904B1F7EDCDD5016D917D916D01072ED9
:10137000000C880B990B98CF702EE89474F82AE033
:1013800030E0853739F1B02FB97F7B2E8037A9F057
:1013900058F48835A9F08F36D9F0F7018681978106
:1013A0006596E2E10C9400198837B9F774FE02C023
:1013B000689472F820E130E00DC0689474F8F6CFBC
:1013C00004FF03C0EB2FE6607E2E20E132E002C076
:1013D00028E030E077FE16C0D5014D915D916D910A
:1013E0007D916D014C875D876E877F87A4016C8539
:1013F0007D858E859F850E94F81CA82EA818072D34
:101400000F7764CFF501819191916F01AC0170E08C
:1014100060E0E8CF62FC02C0B39473CFB394B3949E
:1014200070CF862D867809F46CCFF6CFB70180E2B5
:1014300090E00E94A51CB394B514C0F300E06CCFFB
:10144000052D0B19B51408F467CFF8CF862D8678D3
:1014500009F474CF8BE261FE80E267FC8DE2B70194
:1014600090E06ACFB70180E390E00E94A51C115084
:1014700065CF8FEF9FEF94CF24E000E0251508F0B3
:1014800049CD84E03ACDECE7F0E08081807E808336
:10149000808184608083808180628083EAE7F0E0DD
:1014A0008081897F80838081816080838081806862
:1014B00080830895ECE7F0E08081857E80838081E1
:1014C000856080830C94D8010E94430AECE7F0E029
:1014D0008081807E808387B18F7387B908950F9351
:1014E0001F93CF93DF9300D000D000D0CDB7DEB7ED
:1014F0000E945A0A8B018E839D83ECE7F0E0808185
:10150000847E80838081846080830E94D8012CE760
:1015100030EF41EC5FE369837A838B839C8369813D
:101520007A818B819C810E944A1B98014E815D814A
:1015300069837A838B839C8369817A818B819C8187
:101540000E94211969837A838B839C8369817A81C4
:101550008B819C8126960FB6F894DEBF0FBECDBF5F
:10156000DF91CF911F910F9108950F931F93CF9308
:10157000DF9300D000D000D0CDB7DEB70E945A0A6A
:101580008B018E839D83ECE7F0E08081837E8083F6
:101590008081836080830E94D8012CE730EF41EC8A
:1015A0005FE369837A838B839C8369817A818B81F2
:1015B0009C810E944A1B98014E815D8169837A83D8
:1015C0008B839C8369817A818B819C810E94211904
:1015D00069837A838B839C8369817A818B819C81E7
:1015E00026960FB6F894DEBF0FBECDBFDF91CF9128
:1015F0001F910F9108956F927F928F929F92AF9259
:10160000BF92CF92DF92EF92FF920F931F93CF93EF
:10161000DF9300D000D000D0CDB7DEB70E945A0AC9
:101620005B016C0180917C00807F80937C008091C5
:101630007C00816080937C0080E4E82E82E0F82EBC
:10164000612C712C812C912C0E94D8018B018E83EE
:101650009D839301A40169831A838B839C83698191
:101660007A818B819C810E94451B18161CF43801DD
:101670008E809D8081E0E81AF10831F723E333E39F
:1016800043E35FE369827A828B829C8269817A81FB
:101690008B819C810E94221921E834E045E35FE3BD
:1016A00069837A838B839C8369817A818B819C8116
:1016B0000E94AA199501A60169837A838B839C8372
:1016C00069817A818B819C810E94211920E030E020
:1016D00048EC52E469837A838B839C8369817A81A5
:1016E0008B819C810E944A1B69837A838B839C83B4
:1016F00069817A818B819C8126960FB6F894DEBF32
:101700000FBECDBFDF91CF911F910F91FF90EF9052
:10171000DF90CF90BF90AF909F908F907F906F9011
:1017200008956F927F928F929F92AF92BF92CF92C5
:10173000DF92EF92FF920F931F93CF93DF9300D02E
:1017400000D000D0CDB7DEB70E945A0A5B016C0111
:1017500080917C00827E80937C0080917C008260FE
:1017600080937C0080E4E82E82E0F82E612C712CBE
:10177000812C912C0E94D8018B018E839D83930133
:10178000A40169831A838B839C8369817A818B810D
:101790009C810E94451B18161CF438018E809D8088
:1017A00081E0E81AF10831F72DE13AE54CE350E425
:1017B00069827A828B829C8269817A818B819C8109
:1017C0000E944A1B23E333E343E35FE369837A83A5
:1017D0008B839C8369817A818B819C810E942219F1
:1017E00021E834E045E35FE369837A838B839C835C
:1017F00069817A818B819C810E94AA199501A60139
:1018000069837A838B839C8369817A818B819C81B4
:101810000E94211969837A838B839C8369817A81F1
:101820008B819C8126960FB6F894DEBF0FBECDBF8C
:10183000DF91CF911F910F91FF90EF90DF90CF90AC
:10184000BF90AF909F908F907F906F9008950F936F
:101850001F93CF93DF93CDB7DEB7A0970FB6F89461
:10186000DEBF0FBECDBF9AE030E0292F56EEE0E09C
:10187000452F71E3F1E0672F86E3998B3A8BAFE058
:10188000B0E0BC8BAB8B0EEB10E01E8B0D8B7F8B17
:10189000F88F99873A875B87EC87EAEAF0E0FE8762
:1018A000ED87EFEAF0E0F88BEF8799833A83BC830A
:1018B000AB83A2E3B0E0BE83AD83F887EF830FEF85
:1018C0001FEF50E071E091E00E94350429893A89C8
:1018D0004B895C896D897E898F89988D0E9435043A
:1018E00029853A854B855C856D857E858F859889B0
:1018F0000E94350429813A814B815C816D817E8112
:101900008F8198850E943504A0960FB6F894DEBFAB
:101910000FBECDBFDF91CF911F910F9108952F92F0
:101920003F924F925F926F927F928F929F92AF926F
:10193000BF92CF92DF92EF92FF920F931F93CF93BC
:10194000DF93CDB7DEB7CC5ED1400FB6F894DEBFE3
:101950000FBECDBF3C010E94B50A20E030E040E759
:1019600053E4CF51DE4F6883C15ED140CE51DE4F8C
:101970007883C25ED140CD51DE4F8883C35ED140B3
:10198000CC51DE4F9883C45ED140CF51DE4F688189
:1019900079818A819B81C15ED1400E944A1B1B01D3
:1019A0006C01CB51DE4F6883C55ED140CA51DE4F1A
:1019B0003882C65ED140C951DE4F8883C75ED140B0
:1019C000C851DE4FD882C85ED140C3010E946F0A61
:1019D00020E030E040E753E4CF51DE4F6883C15E42
:1019E000D140CE51DE4F7883C25ED140CD51DE4F23
:1019F0008883C35ED140CC51DE4F9883C45ED14012
:101A0000CF51DE4F688179818A819B81C15ED1404F
:101A10000E944A1B7B018C014B015C01C3010E94A7
:101A2000910B222D332D4C2D5D2DCF51DE4F688330
:101A3000C15ED140CE51DE4F7883C25ED140CD51E0
:101A4000DE4F8883C35ED140CC51DE4F9883C45EA5
:101A5000D140CF51DE4F688179818A819B81C15EFF
:101A6000D1400E9421192E2D3F2D402F512FCF51B3
:101A7000DE4F6883C15ED140CE51DE4F7883C25EB7
:101A8000D140CD51DE4F8883C35ED140CC51DE4F73
:101A90009883C45ED140CF51DE4F688179818A81BD
:101AA0009B81C15ED1400E94211920E030E040E7D7
:101AB00053E4CF51DE4F6883C15ED140CE51DE4F3B
:101AC0007883C25ED140CD51DE4F8883C35ED14062
:101AD000CC51DE4F9883C45ED140CF51DE4F688138
:101AE00079818A819B81C15ED1400E944A1BC75186
:101AF000DE4F6883C95ED140C651DE4F7883CA5E2F
:101B0000D140C551DE4F8883CB5ED140C451DE4FFA
:101B10009883CC5ED1402B013C0120E030E0A9014C
:101B2000CF51DE4F2882C15ED140CE51DE4F388288
:101B3000C25ED140CD51DE4FC882C35ED140CC5190
:101B4000DE4FD882C45ED140CF51DE4F68817981AB
:101B50008A819B81C15ED1400E94A51987FD20C169
:101B600020E030E0A901CF51DE4FE882C15ED140D4
:101B7000CE51DE4FF882C25ED140CD51DE4F088398
:101B8000C35ED140CC51DE4F1883C45ED140CF51EB
:101B9000DE4F688179818A819B81C15ED1400E943C
:101BA000A51987FD12C120E030E0A901CF51DE4F19
:101BB0004882C15ED140CE51DE4F5882C25ED140D4
:101BC000CD51DE4F6882C35ED140CC51DE4F78826A
:101BD000C45ED140CF51DE4F688179818A819B817B
:101BE000C15ED1400E94A51987FF04C0412C512C31
:101BF000612C712C7F926F925F924F9281E491E001
:101C00009F938F936E0187E9C81A8EEFD80ADF92EF
:101C1000CF920E94D51CBF92AF929F928F9281E883
:101C200091E09F938F937E0191EFE90EF11CFF925B
:101C3000EF920E94D51CC851DE4F8881C85ED1400A
:101C40008F93C951DE4F9881C75ED1409F93CA518F
:101C5000DE4F8881C65ED1408F93CB51DE4F988195
:101C6000C55ED1409F9384EB91E09F938F938E014B
:101C700007581F4F1F930F930E94D51C242D352DFD
:101C8000462D572DCF51DE4F8882C15ED140CE51B7
:101C9000DE4F9882C25ED140CD51DE4FA882C35E36
:101CA000D140CC51DE4FB882C45ED140CF51DE4F1F
:101CB000688179818A819B81C15ED1400E9422190D
:101CC000CB51DE4FB881C55ED140CA51DE4FA881ED
:101CD000C65ED140C951DE4FF881C75ED140C851C0
:101CE000DE4FE881C85ED1402B2F3A2F4F2F5E2F59
:101CF000CF51DE4F6883C15ED140CE51DE4F788335
:101D0000C25ED140CD51DE4F8883C35ED140CC51FD
:101D1000DE4F9883C45ED140CF51DE4F6881798118
:101D20008A819B81C15ED1400E9422199F938F932B
:101D30007F936F938BE192E09F938F93CE010196F7
:101D40005C019F938F930E94D51C0FB6F894DEBF61
:101D50000FBECDBFC6010E940006C7010E9400064B
:101D6000C8010E940006C5010E940006C451DE4F52
:101D70000FB6F894DEBF0FBECDBFDF91CF911F919C
:101D80000F91FF90EF90DF90CF90BF90AF909F901A
:101D90008F907F906F905F904F903F902F9008951D
:101DA000CB51DE4F1882C55ED140CA51DE4F18823A
:101DB000C65ED140C951DE4F1882C75ED140C851BE
:101DC000DE4F1882C85ED14015CF812C912CA12CFA
:101DD000B12C10CF2F923F924F925F926F927F92D1
:101DE0008F929F92AF92BF92CF92DF92EF92FF922B
:101DF0000F931F93CF93DF93CDB7DEB7AA970FB69C
:101E0000F894DEBF0FBECDBF4C010E94B50A6B0136
:101E10007C01C4010E946F0A5B018C01C4010E9415
:101E2000910B9601A70169A37AA38BA39CA369A137
:101E30007AA18BA19CA10E9421199501A80169A3F7
:101E40007AA38BA39CA369A17AA18BA19CA10E94D8
:101E500021193B014C0120E030E0A901C9A2DAA21E
:101E6000EBA2FCA269A17AA18BA19CA10E94A51959
:101E700087FD1DC120E030E0A901A9A2BAA20BA3F1
:101E80001CA369A17AA18BA19CA10E94A51987FD21
:101E900017C120E030E0A90169A27AA28BA29CA21E
:101EA00069A17AA18BA19CA10E94A51987FF08C0F6
:101EB000E7E16E2EF7EB7F2EA1ED8A2EB8E39B2E85
:101EC00020E030E040E451E4C9A2DAA2EBA2FCA297
:101ED00069A17AA18BA19CA10E944A1B69A37AA344
:101EE0008BA39CA369A17AA18BA19CA10E948E19AE
:101EF0006B017C0120E030E040E451E4A9A2BAA2E9
:101F00000BA31CA369A17AA18BA19CA10E944A1BCF
:101F100069A37AA38BA39CA369A17AA18BA19CA19D
:101F20000E948E191B012C0120E030E040E451E4B6
:101F300069A27AA28BA29CA269A17AA18BA19CA181
:101F40000E944A1B69A37AA38BA39CA369A17AA1CF
:101F50008BA19CA10E948E196FA378A789A79AA72D
:101F600014E100E01DA3198F0A8F8AEA882E912CB4
:101F70008EA29C8E8B8EC9A2DAA2EBA2FCA269A1D2
:101F80007AA18BA19CA10E941C1A6B019BE9A92E2E
:101F9000B12CAC18BD086A2CBE8EAD8E98A28F8E67
:101FA000198B0A8B9C8A8B8A29A23AA24BA25CA22B
:101FB00069A17AA18BA19CA10E941C1A462F572FC0
:101FC000A41AB50ABE8AAD8AC4018C199D09988FDE
:101FD0008F8B19870A879C868B868FA189A388A5FA
:101FE0008AA389A58BA38AA58CA369A17AA18BA1B9
:101FF0009CA10E941C1A462F572FC501841B950BCC
:102000009E878D87B88AAF8619830A839C828B82CC
:1020100022E330E03E832D8398878F830FE110E029
:1020200024E130E0482D5C8D662D7E8D882D98A1B1
:102030000E94350400EE17E029893A894B895C89B2
:102040006D897E898F89988D0E94350400E018EF94
:1020500029853A854B855C856D857E858F85988938
:102060000E94350410E000E029813A814B815C81B7
:102070006D817E818F8198850E943504AA960FB666
:10208000F894DEBF0FBECDBFDF91CF911F910F91AE
:10209000FF90EF90DF90CF90BF90AF909F908F9088
:1020A0007F906F905F904F903F902F90089547E101
:1020B000C42E57EBD52E61EDE62E78E3F72E00CF38
:1020C00027E1A22E37EBB32E01ED18E3F9CE8F9264
:1020D0009F92AF92BF92CF92DF92EF92FF920F93B7
:1020E0001F93CF93DF93CDB7DEB7CC50D1400FB65F
:1020F000F894DEBF0FBECDBFFE01319680E091E0C7
:10210000DF019C011D9221503040E1F77B016F01FE
:102110005B01B3948F01D7018D919D917D019C014D
:1021200050E040E0C75FDE4F288339834A835B83FA
:10213000C950D140CA01B9010E94521A20E030E0D2
:1021400048E951E4C75FDE4F6883C950D140C65F9C
:10215000DE4F7883CA50D140C55FDE4F8883CB50B5
:10216000D140C45FDE4F9883CC50D140C75FDE4F73
:10217000688179818A819B81C950D1400E944A1B24
:10218000C75FDE4F6883C950D140C65FDE4F78839A
:10219000CA50D140C55FDE4F8883CB50D140C45F69
:1021A000DE4F9883CC50D140C75FDE4F6881798184
:1021B0008A819B81C950D1400E94231A462F572FF4
:1021C000D8014D935D938D01EA14FB0409F0A3CF70
:1021D00084E1E82EF12C91E3892E9924939421E354
:1021E000B22EAA24A3942E2DCF5FDE4FF982E8826F
:1021F000C150D140BFEFEB1AFB0A4E2DCD5FDE4F31
:10220000F982E882C350D140F601819191916F012A
:10221000B401681B790BCB5FDE4F79836883C550AF
:10222000D140C95FDE4FB882C750D140C85FDE4F92
:10223000A882C850D14000EE1FEFCE5FDE4F38813C
:10224000C250D140CC5FDE4F5881C450D140CA5FEC
:10225000DE4F7881C650D1408B2D9A2D0E943504D7
:1022600074E9E716F10409F0BECFC45FDE4F0FB684
:10227000F894DEBF0FBECDBFDF91CF911F910F91BC
:10228000FF90EF90DF90CF90BF90AF909F908F9096
:102290000895CDB7DEB7C754D1090FB6F894DEBFA5
:1022A0000FBECDBF279A2F9887E492E00E94270C9B
:1022B00087E492E00E948F0C87E492E00E94EA0E8D
:1022C00068E472E087E492E00E9467100E941702BF
:1022D00086B186B182E392E00E94FB0A82E392E03B
:1022E0000E94910B00E010E028961FAE28972796D9
:1022F0001FAE279718AE19AE1AAE1BAE1CAA1DAAA8
:102300001EAA1FAA18AA19AA1AAA1BAA1EA61FA6A5
:10231000612C712C1D8E1C8E198E188E1D8A1C8AA4
:10232000D12CC12C82E392E00E94B50A6EA37FA358
:1023300088A799A782E392E00E946F0A6AA77BA709
:102340008CA79DA70E9417028C879D8786B1382F86
:10235000307438A386FB882780F98A8B1B8A86B164
:1023600089A3082E000C990BA92FAA1FAA27AA1F20
:10237000AE871F8682E392E00E94FB0A6CAF7DAFBE
:102380008EAF9FAF82E392E00E94910B21966FAFD8
:10239000219722967FAF229723968FAF239724967B
:1023A0009FAF24972AA53BA54CA55DA5BEA1BD83E3
:1023B0008FA18E8398A59F83A9A5A8876D817E8113
:1023C0008F8198850E942219B62EA72EF82EE92E0D
:1023D00020E030E040E050E4BEA5BD838FA58E83B1
:1023E0006F8278866D817E818F8198850E94A51984
:1023F00087FFE5C020E030E040E050E49CAD9D83E5
:10240000ADADAE83BEADBF838FAD88876D817E815C
:102410008F8198850E94A51987FFD1C0C601DD0C68
:10242000AA0BBB0B8D839E83AF83B887BC01CD0104
:102430000E94541A2DEC3CEC4CE45FE36D837E83E8
:102440008F8398876D817E818F8198850E944A1B3A
:102450003B016C018C899D89092E000CAA0BBB0BDA
:102460008C8B9D8BAE8BBF8BBC01CD010E94541A0F
:1024700026E636E646EE5FE36D837E838F8398879C
:102480006D817E818F8198850E944A1B9B01AC01E2
:102490006D827E82CF82D8866D817E818F81988584
:1024A0000E9422193B016C01888D998D092E000C28
:1024B000AA0BBB0B888F998FAA8FBB8FBC01CD0154
:1024C0000E94541A23E333E343EB5FE36D837E837F
:1024D0008F8398876D817E818F8198850E944A1BAA
:1024E0009B01AC016D827E82CF82D8866D817E8118
:1024F0008F8198850E9422193B016C018C8D9D8DE6
:10250000092E000CAA0BBB0B8C8F9D8FAE8FBF8F3B
:10251000BC01CD010E94541A9B01AC016D827E82E8
:10252000CF82D8866D817E818F8198850E94221905
:102530003B016C0121962FAD219722963FAD22974A
:1025400023964FAD239724965FAD24976D837E82AB
:102550008F83D8866D817E818F8198850E94211915
:102560002DEC3CEC4CEC5EE36D837E838F8398878F
:102570006D817E818F8198850E94451B1816FCF421
:1025800028A939A94AA95BA96D827E82CF82D88603
:102590006D817E818F8198850E9421192DEC3CEC04
:1025A0004CEC5EE36D837E838F8398876D817E81A3
:1025B0008F8198850E94451B18160CF45BC020E0A3
:1025C00030E040E251E40D831E8328969FAD2897AA
:1025D0009F832796AFAD2797A8876D817E818F81D6
:1025E00098850E94A519882391F020E030E040E210
:1025F00051E48D829E82B981BF83898588876D81F0
:102600007E818F8198850E94A51981115FC02C85DC
:102610003D85232B09F411C538A1332309F4CCC41B
:1026200089A187FFC9C420E030E0A901BD82AE8244
:10263000FF82E8866D817E818F8198850E94A51931
:102640008111BAC420E030E040E85FE36D817E8113
:102650008F8198850E94A5198111AEC48AA19BA182
:10266000AC85BD858A179B07C9F121E030E03B8727
:102670002A8713C2812C912C90E29983A1E4A98727
:10268000C6CF312C212C26E636E646E250E4B9824C
:10269000AA82FB82EC8269817A818B819C810E9473
:1026A000A51987FDE8C191E080E0AC85BD85AB2B25
:1026B00009F490E09A878B872A883B88512C412C1B
:1026C000812C912CB0E2B98321E42987AAA1BBA176
:1026D0002C853D85A217B30709F0D6C18CA19DA119
:1026E000AA89BB898A179B0709F0CEC126962EAD11
:1026F0003FAD26978E859F852817390709F0C4C1FD
:102700002EA13FA148A559A59CA99D83ADA9AE8343
:10271000BEA9BF838FA988876D817E818F819885AF
:102720000E94A5198111B0C12AA53BA54CA55DA5A4
:1027300098AD9D83A9ADAE83BAADBF838BAD8887BD
:102740006D817E818F8198850E94A51981119CC120
:1027500020E030E040E251E48D829E8299819F83A7
:10276000A985A8876D817E818F8198850E94A51992
:1027700081118AC12C853D85232B09F4C0C338A162
:10278000332309F4C6C389A187FFCDC320E030E01D
:10279000A901BD82AE82FF82E8866D817E818F8134
:1027A00098850E94A519882309F448C320E030E0E9
:1027B00040E85FE36D817E818F8198850E94A51935
:1027C000882309F440C38401998128969FAF2897F4
:1027D000A9852796AFAF2797C401A981B9858093B2
:1027E000330290933402A0933502B0933602809165
:1027F0007C00877E80937C0080917C008760809342
:102800007C000E94D8012FEE39EC45EB50E469833F
:102810007A838B839C8369817A818B819C810E94DE
:102820004A1B9B01AC01609133027091340280918C
:102830003502909136020E9421194B015C012091D2
:102840003F0230914002409141025091420260911A
:1028500043027091440280914502909146020E9489
:102860004A1B6B017C0120913B0230913C0240915C
:102870003D0250913E0289829A82AB82BC8269817C
:102880007A818B819C810E9421192AE037ED43E2F5
:102890005CE369837A838B839C8369817A818B81F2
:1028A0009C810E944A1B9B01AC01C982DA82EB82A7
:1028B000FC8269817A818B819C810E942119F62F8B
:1028C000E72F462F572FBC0140933F025093400201
:1028D0006093410270934202209137023091380296
:1028E0004091390250913A02F983EA838B839C83A9
:1028F00069817A818B819C810E9422196B017C0104
:10290000CB01D7018093370290933802A09339020C
:10291000B0933A02C401D50180933B0290933C02EC
:10292000A0933D02B0933E0223E333E343E75FE32A
:10293000C982DA82EB82FC8269817A818B819C81F7
:102940000E94451B181614F483EF87BD2DEC3CEC58
:102950004CE45DE3C982DA82EB82FC8269817A8190
:102960008B819C810E94A51987FF02C09CE097BDC6
:1029700020E030E04FE753E4C982DA82EB82FC8248
:1029800069817A818B819C810E944A1B69837A8349
:102990008B839C8369817A818B819C810E948E19B3
:1029A00069837A838B839C8369817A818B819C8103
:1029B0000E94231A67BDAA85BB85119709F0E1C261
:1029C000429AB1E02B16310409F0DDC2439A21E0AE
:1029D0004216510409F0D9C2449A3889313009F0BD
:1029E000D6C2409A4198480128968FAD289789838E
:1029F00027969FAD27979987AAA5A8AFBBA5B9AF82
:102A00002CA52AAF3DA53BAF8EA18CAB9FA19DAB62
:102A1000A8A5AEABB9A5BFAB21962FAD219728AB2A
:102A200022963FAD229739AB23968FAD23978AAB81
:102A300024969FAD24979BABACADAEA7BDADBFA711
:102A40006EAC7FAC2E853F8526963FAF2EAF269786
:102A50008A899B899DA38CA3AC85BD85BBA3AAA3B2
:102A6000288939893D8F2C8F598E488E3D8A2C8A32
:102A7000CA84DB8457CC512C412C812C912C30E220
:102A8000398381E4898722CE91E080E02C853D85E1
:102A9000232B09F490E09A878B878A859B85092EE2
:102AA000000CAA0BBB0B89839A83AB83BC83BC014C
:102AB000CD010E94541A2DEC3CEC4CE45FE3698399
:102AC0007A838B839C8369817A818B819C810E942C
:102AD0004A1B8B0189879D838A899B89092E000C5B
:102AE000AA0BBB0B89839A83AB83BC83BC01CD014A
:102AF0000E94541A26E636E646EE5FE369837A833F
:102B00008B839C8369817A818B819C810E944A1B83
:102B10009B01AC0109831A8399859B83AD81AC83AA
:102B200069817A818B819C810E94221969877D83CA
:102B30008C8B988F8E859F85092E000CAA0BBB0B62
:102B400089839A83AB83BC83BC01CD010E94541A54
:102B500023E333E343EB5FE369837A838B839C83D3
:102B600069817A818B819C810E944A1B29853D81E4
:102B70004C89588D69837A838B839C8369817A81A0
:102B80008B819C810E9422191B012C012B2D3A2D37
:102B90004F2D5E2D69833A828B835C8269817A81B5
:102BA0008B819C810E9421193B01888B9C8F20E0A6
:102BB00030E040E251E469837A828B839C836981AF
:102BC0007A818B819C810E944A1B20E030E040E4A6
:102BD00050E469837A838B839C8369817A818B81BA
:102BE0009C810E94AA194B016C0120E030E0A901F0
:102BF00069839A828B83DC8269817A818B819C8153
:102C00000E94A51987FF27C100E010E028961FAE9B
:102C1000289727961FAE27972CE53FE842E05FE311
:102C200029823A824B825C8269817A818B819C8184
:102C30000E9421192B2D3A2D4F2D5E2D69837A8309
:102C40008B839C8369817A818B819C810E94451B47
:102C500018160CF408C120E030E040E85FE3698218
:102C60007A8298899B83AC8DAC8369817A818B81D0
:102C70009C810E94221920E030E040E251E4698307
:102C80007A838B839C8369817A818B819C810E946A
:102C90004A1B20E030E040E450E469837A838B8370
:102CA0009C8369817A818B819C810E94AA198B0106
:102CB00028968FAF289727969FAF279720E030E080
:102CC000A90169831A838B839C8369817A818B81B3
:102CD0009C810E94A51987FDC3C121E030E0398B9A
:102CE000288B20E030E040EE50E409831A832896D8
:102CF0008FAD28978B8327969FAD27979C836981FB
:102D00007A818B819C810E94451B4E845F841816BA
:102D10000CF073C020E030E040E251E489829A82F6
:102D2000CB82DC8269817A818B819C810E94A5198A
:102D300087FD9CC020E030E0A901A985A983BD8161
:102D4000BA838C898B83988D9C8369817A818B81EE
:102D50009C810E9422192B2D3A2D4F2D5E2D6983C7
:102D60007A838B839C8369817A818B819C810E9489
:102D700021198B0189879D8388899989092E000CE7
:102D8000AA0BBB0B89839A83AB83BC83BC01CD01A7
:102D90000E94541A9B01AC0109831A8399859B8375
:102DA000AD81AC8369817A818B819C810E942219DB
:102DB00020E030E040E251E469837A838B839C8396
:102DC00069817A818B819C810E944A1B20E030E0DE
:102DD00040E450E469837A838B839C8369817A81A0
:102DE0008B819C810E94AA198B0128968FAF28970E
:102DF00027969FAF2797512C412C2C853D85232B5F
:102E000009F44BC038A1332309F476C099A197FF88
:102E100011C020E030E040E85FE3B982AA82FB8283
:102E2000EC8269817A818B819C810E94A51988231B
:102E300009F483C022242394312C31C081E090E036
:102E40009B878A872ACEA1E0B0E0BB87AA8725CEE0
:102E50001B861A8622CE84012896CFAE2897279605
:102E6000DFAE2797D9CE198A188A3BCF4E845F846C
:102E700084012896CFAE28972796DFAE2797BDCF3F
:102E800081E090E0998B888B00E010E028961FAEDF
:102E9000289727961FAE2797B9CF2A883B8820E02E
:102EA00030E040E251E409831A832896AFAD2897B9
:102EB000AB832796BFAD2797BC8369817A818B81CD
:102EC0009C810E94451B18160CF44EC020E030E097
:102ED00040EC5FE369817A818B819C810E94A51916
:102EE00087FD48C048012896AFAD2897A98327964B
:102EF000BFAD2797B98770CC312C212CD0CF84015E
:102F0000298128962FAF2897398527963FAF279795
:102F100063CC8401898128968FAF2897998527965D
:102F20009FAF279759CC8401A9812896AFAF2897E6
:102F3000B9852796BFAF27974FCC44244394512C93
:102F400022242394312C00E010E020E228962FAFB9
:102F5000289731E427963FAF2797812C912C80E268
:102F6000898391E4998738CC812C912CA0E2A983A4
:102F7000B1E4C0CF812C912C20EC29833FE3398729
:102F80002BCC42981ECD439822CD449826CD409814
:102F900029CD26E636E646E250E4B982AA82FB82D3
:102FA000EC8269817A818B819C810E94A51987FDC1
:102FB00072C01B861A8680CB2DEC3CEC4CE45FE3A0
:102FC000B982AA82FB82EC8269817A818B819C81A1
:102FD0000E94A51987FD04C0A1E0B0E0BB87AA87C5
:102FE00026E636E646EE5FE3B982AA82FB82EC82F1
:102FF00069817A818B819C810E94A51987FD41CBD3
:10300000B8A1BB2309F43FCB2C853D85232B09F2C6
:1030100026E636E646E250E4B982AA82FB82EC82DA
:1030200069817A818B819C810E94A51987FD4BC0A3
:1030300081E090E09B878A873FCB2DEC3CEC4CE411
:103040005FE3B982AA82FB82EC8269817A818B81FB
:103050009C810E94A51987FDC3CF1B861A86C0CF0D
:10306000AC85BD85AB2BC1F54E845F842A883B8837
:1030700021E030E0398B288B00E010E028961FAE6D
:10308000289727961FAE2797812C912C30EC3983F7
:103090008FE38987A1CBAAA1BBA1AB2B09F0D8CE26
:1030A000ACA1BDA18CA19DA1119709F0C9CE22248C
:1030B0002394312C512C412C812C912CB0E2B983DA
:1030C00021E4298713CB512C412C812C912CB0E287
:1030D000B98321E42987C2CAB8A14E845F84B111A3
:1030E000CFCE21E030E0398B288B312C212CC4CF7E
:1030F00087E492E00E94640A81E090E00E94AD03C0
:103100000E94A103E0E8F0E0808183608083E1E831
:10311000F0E0808185608083EFE6F0E0808181606F
:103120008083789483E392E00E94430A85B58160AE
:1031300085BD84B5836084BDEEE6F0E0808181606A
:1031400080838081826080838FE787BDE3E3F2E044
:1031500080E090E0A0E0BFE384839583A683B783FB
:1031600086E696E6A6E6BFE3808B918BA28BB38BB7
:103170008DEC9CECACECBDE384879587A687B78784
:1031800080E090E0A0E2B0E480879187A287B387D7
:10319000789487B18F6387B982E392E00C94640AD4
:1031A000AA1BBB1B51E107C0AA1FBB1FA617B7076D
:1031B00010F0A61BB70B881F991F5A95A9F7809589
:1031C0009095BC01CD0108952F923F924F925F924E
:1031D0006F927F928F929F92AF92BF92CF92DF9227
:1031E000EF92FF920F931F93CF93DF93CDB7DEB78C
:1031F000CA1BDB0B0FB6F894DEBF0FBECDBF099420
:103200002A88398848885F846E847D848C849B8476
:10321000AA84B984C884DF80EE80FD800C811B8184
:10322000AA81B981CE0FD11D0FB6F894DEBF0FBEB3
:10323000CDBFED010895EE0FFF1F0590F491E02D35
:1032400009945058BB27AA270E9439190C94F31AE5
:103250000E94E51A38F00E94EC1A20F039F49F3FE2
:1032600019F426F40C94E21A0EF4E095E7FB0C94A2
:10327000B31AE92F0E94041B58F3BA1762077307A9
:103280008407950720F079F4A6F50C943E1B0EF404
:10329000E0950B2EBA2FA02D0B01B90190010C0166
:1032A000CA01A0011124FF27591B99F0593F50F47E
:1032B000503E68F11A16F040A22F232F342F4427D6
:1032C000585FF3CF469537952795A795F0405395CE
:1032D000C9F77EF41F16BA0B620B730B840BBAF09E
:1032E0009150A1F0FF0FBB1F661F771F881FC2F709
:1032F0000EC0BA0F621F731F841F48F4879577951D
:103300006795B795F7959E3F08F0B0CF9395880FD6
:1033100008F09927EE0F9795879508950E94261B30
:1033200090F09F3748F4911116F40C943F1B60E025
:1033300070E080E89FE3089526F01B16611D711D63
:10334000811D0C94B91A0C94D41A0E948F1A08F497
:1033500081E008950E94BE190C94F31A0E94EC1AA1
:1033600058F00E94E51A40F029F45F3F29F00C94D0
:10337000B31A51110C943F1B0C94E21A0E94041BC7
:1033800068F39923B1F3552391F3951B550BBB2794
:10339000AA2762177307840738F09F5F5F4F220FD9
:1033A000331F441FAA1FA9F335D00E2E3AF0E0E8D0
:1033B00032D091505040E695001CCAF72BD0FE2F1A
:1033C00029D0660F771F881FBB1F261737074807AE
:1033D000AB07B0E809F0BB0B802DBF01FF27935866
:1033E0005F4F3AF09E3F510578F00C94B31A0C945D
:1033F0003F1B5F3FE4F3983ED4F38695779567953E
:10340000B795F7959F5FC9F7880F911D969587959A
:1034100097F90895E1E0660F771F881FBB1F6217B9
:1034200073078407BA0720F0621B730B840BBA0B77
:10343000EE1F88F7E09508950E94231A6894B11151
:103440000C943F1B08950E940C1B88F09F5798F026
:10345000B92F9927B751B0F0E1F0660F771F881F99
:10346000991F1AF0BA95C9F714C0B13091F00E94B3
:103470003E1BB1E008950C943E1B672F782F8827E0
:10348000B85F39F0B93FCCF3869577956795B395DA
:10349000D9F73EF490958095709561957F4F8F4F49
:1034A0009F4F0895E89409C097FB3EF4909580954E
:1034B000709561957F4F8F4F9F4F9923A9F0F92FFA
:1034C00096E9BB279395F695879577956795B79578
:1034D000F111F8CFFAF4BB0F11F460FF1BC06F5F5E
:1034E0007F4F8F4F9F4F16C0882311F096E911C070
:1034F000772321F09EE8872F762F05C0662371F091
:1035000096E8862F70E060E02AF09A95660F771FA4
:10351000881FDAF7880F9695879597F90895990F80
:103520000008550FAA0BE0E8FEEF16161706E8078D
:10353000F907C0F012161306E407F50798F0621BAE
:10354000730B840B950B39F40A2661F0232B242B83
:10355000252B21F408950A2609F4A140A6958FEFA2
:10356000811D811D089597F99F6780E870E060E0F4
:103570000895882371F4772321F09850872B762FB4
:1035800007C0662311F499270DC09051862B70E077
:1035900060E02AF09A95660F771F881FDAF7880F88
:1035A0009695879597F908959F3F31F0915020F4B3
:1035B000879577956795B795880F911D969587950F
:1035C00097F908959FEF80EC089500240A94161649
:1035D000170618060906089500240A941216130601
:1035E000140605060895092E0394000C11F488238F
:1035F00052F0BB0F40F4BF2B11F460FF04C06F5FAB
:103600007F4F8F4F9F4F089557FD9058440F551F80
:1036100059F05F3F71F04795880F97FB991F61F054
:103620009F3F79F087950895121613061406551FCB
:10363000F2CF4695F1DF08C0161617061806991F37
:10364000F1CF869571056105089408950E940C1BC1
:10365000A0F0BEE7B91788F4BB279F3860F41616B0
:10366000B11D672F782F8827985FF7CF86957795BC
:103670006795B11D93959639C8F30895E894BB27D3
:1036800066277727CB0197F908950E948F1A08F4CF
:103690008FEF08950E945D1B0C94F31A0E94E51AA7
:1036A00038F00E94EC1A20F0952311F00C94B31A14
:1036B0000C94E21A11240C943F1B0E94041B70F31B
:1036C000959FC1F3950F50E0551F629FF001729FC7
:1036D000BB27F00DB11D639FAA27F00DB11DAA1FD6
:1036E000649F6627B00DA11D661F829F2227B00D23
:1036F000A11D621F739FB00DA11D621F839FA00DAE
:10370000611D221F749F3327A00D611D231F849FFD
:10371000600D211D822F762F6A2F11249F57504054
:103720009AF0F1F088234AF0EE0FFF1FBB1F661FCF
:10373000771F881F91505040A9F79E3F510580F098
:103740000C94B31A0C943F1B5F3FE4F3983ED4F300
:10375000869577956795B795F795E7959F5FC1F73C
:10376000FE2B880F911D9695879597F9089528301F
:1037700008F027E03327DA01990F311D87FD9160AA
:1037800000966105710539F432602E5F3D9330E398
:103790002A95E1F708959F3F30F080387105610563
:1037A00009F03C5F3C5F3D93913008F08068911DCB
:1037B000DF93CF931F930F93FF92EF92192F987F70
:1037C0009695E92F96959695E90FFF27E252FF4FC0
:1037D00099273327EE24FF24A701E70105900894D9
:1037E000079428F4360FE71EF81E491F511D660F77
:1037F000771F881F991F0694A1F70590079428F456
:10380000E70EF81E491F561FC11D770F881F991F0D
:10381000661F0694A1F70590079428F4F80E491F37
:10382000561FC71FD11D880F991F661F771F06944B
:10383000A1F70590079420F4490F561FC71FD81F02
:10384000990F661F771F881F0694A9F7849110951A
:10385000177041F0D695C79557954795F794E7941B
:103860001A95C1F7E4E8F0E0689415901591359148
:103870006591959105907FE27395E118F10A430BEC
:10388000560BC90BD009C0F7E10CF11E431F561FA0
:10389000C91FD01D7EF4703311F48A95E6CFE894E9
:1038A000015030F0080F0AF40027021708F4202F07
:1038B0002395022F7A3328F079E37D932A95E9F74F
:1038C00010C07D932A9589F606949795679537954C
:1038D00017951794E118F10A430B560BC90BD00941
:1038E00098F023957E9173957A3308F070E37C937A
:1038F0002013B8F77E9170617D9330F0839571E36A
:103900007D9370E32A95E1F71124EF90FF900F91DA
:103910001F91CF91DF91992787FD90950895FC0124
:103920000590615070400110D8F7809590958E0FEA
:103930009F1F0895FC016150704001900110D8F75D
:10394000809590958E0F9F1F08950F931F93CF938F
:10395000DF93182F092FEB018B8181FD09C01FEF29
:103960000FEF812F902FDF91CF911F910F9108952D
:1039700082FF14C02E813F818C819D8128173907D9
:103980003CF4E881F981CF01019699838883108303
:103990008E819F8101969F838E83E3CFE885F98591
:1039A000812F0995892BA1F3DACFAEE0B0E0EBEDE2
:1039B000FCE10C94F2180D891E8986E08C831A8331
:1039C00009838FEF9FE79E838D83AE01475E5F4F34
:1039D0006F89788DCE0101960E94BF062F813885B0
:1039E000020F131FF80110822E96E4E00C940E19BA
:1039F000FA01AA27283051F1203181F1E8946F9320
:103A00006E7F6E5F7F4F8F4F9F4FAF4FB1E03ED0C5
:103A1000B4E03CD0670F781F891F9A1FA11D680F63
:103A2000791F8A1F911DA11D6A0F711D811D911D96
:103A3000A11D20D009F468943F912AE0269F11240B
:103A40003019305D3193DEF6CF010895462F47706F
:103A5000405D4193B3E00FD0C9F7F6CF462F4F70CA
:103A6000405D4A3318F0495D31FD4052419302D028
:103A7000A9F7EACFB4E0A6959795879577956795CE
:103A8000BA95C9F700976105710508959B01AC01CE
:103A90000A2E06945795479537952795BA95C9F7F5
:103AA000620F731F841F951FA01D0895F894FFCF08
:103AB000F0004001020000000000FFFF00000A8249
:103AC000270000010000001F1A180A0F0645873260
:103AD0000A0702070500000025270510093A784D5E
:103AE00005180D383A1F00000000EF000000013FEC
:103AF00000202020202020202020204D61696E738E
:103B000020506F7765723A202025352E3266572077
:103B100020202020202020202020202020202020A5
:103B20002020202020202020202020202020202095
:103B300000505620506F7765723A20202566572036
:103B40002020202020202020202020202020202075
:103B50002020202020202020202020202020202065
:103B6000202020002057696E6420506F7765723ADC
:103B7000202025352E32665720202020202020208E
:103B80002020202020202020202020202020202035
:103B90002020202020202020202020202020202025
:103BA0002020202020202020202020202020202015
:103BB0002020202020202020202020202020202005
:103BC0002020202020202020202000544F54414C31
:103BD00020504F5745523A202025352E3266572027
:023BE0000000E3
:00000001FF
